{
  "contractName": "Ownable",
  "abi": [
    {
      "inputs": [],
      "payable": false,
      "stateMutability": "nonpayable",
      "type": "constructor"
    },
    {
      "anonymous": false,
      "inputs": [
        {
          "indexed": true,
          "name": "previousOwner",
          "type": "address"
        }
      ],
      "name": "OwnershipRenounced",
      "type": "event"
    },
    {
      "anonymous": false,
      "inputs": [
        {
          "indexed": true,
          "name": "previousOwner",
          "type": "address"
        },
        {
          "indexed": true,
          "name": "newOwner",
          "type": "address"
        }
      ],
      "name": "OwnershipTransferred",
      "type": "event"
    },
    {
      "constant": true,
      "inputs": [],
      "name": "owner",
      "outputs": [
        {
          "name": "",
          "type": "address"
        }
      ],
      "payable": false,
      "stateMutability": "view",
      "type": "function"
    },
    {
      "constant": true,
      "inputs": [],
      "name": "isOwner",
      "outputs": [
        {
          "name": "",
          "type": "bool"
        }
      ],
      "payable": false,
      "stateMutability": "view",
      "type": "function"
    },
    {
      "constant": false,
      "inputs": [],
      "name": "renounceOwnership",
      "outputs": [],
      "payable": false,
      "stateMutability": "nonpayable",
      "type": "function"
    },
    {
      "constant": false,
      "inputs": [
        {
          "name": "newOwner",
          "type": "address"
        }
      ],
      "name": "transferOwnership",
      "outputs": [],
      "payable": false,
      "stateMutability": "nonpayable",
      "type": "function"
    }
  ],
  "bytecode": "0x608060405234801561001057600080fd5b50336000806101000a81548173ffffffffffffffffffffffffffffffffffffffff021916908373ffffffffffffffffffffffffffffffffffffffff1602179055506103c6806100606000396000f300608060405260043610610062576000357c0100000000000000000000000000000000000000000000000000000000900463ffffffff168063715018a6146100675780638da5cb5b1461007e5780638f32d59b146100d5578063f2fde38b14610104575b600080fd5b34801561007357600080fd5b5061007c610147565b005b34801561008a57600080fd5b50610093610201565b604051808273ffffffffffffffffffffffffffffffffffffffff1673ffffffffffffffffffffffffffffffffffffffff16815260200191505060405180910390f35b3480156100e157600080fd5b506100ea61022a565b604051808215151515815260200191505060405180910390f35b34801561011057600080fd5b50610145600480360381019080803573ffffffffffffffffffffffffffffffffffffffff169060200190929190505050610281565b005b61014f61022a565b151561015a57600080fd5b6000809054906101000a900473ffffffffffffffffffffffffffffffffffffffff1673ffffffffffffffffffffffffffffffffffffffff167ff8df31144d9c2f0f6b59d69b8b98abd5459d07f2742c4df920b25aae33c6482060405160405180910390a260008060006101000a81548173ffffffffffffffffffffffffffffffffffffffff021916908373ffffffffffffffffffffffffffffffffffffffff160217905550565b60008060009054906101000a900473ffffffffffffffffffffffffffffffffffffffff16905090565b60008060009054906101000a900473ffffffffffffffffffffffffffffffffffffffff1673ffffffffffffffffffffffffffffffffffffffff163373ffffffffffffffffffffffffffffffffffffffff1614905090565b61028961022a565b151561029457600080fd5b61029d816102a0565b50565b600073ffffffffffffffffffffffffffffffffffffffff168173ffffffffffffffffffffffffffffffffffffffff16141515156102dc57600080fd5b8073ffffffffffffffffffffffffffffffffffffffff166000809054906101000a900473ffffffffffffffffffffffffffffffffffffffff1673ffffffffffffffffffffffffffffffffffffffff167f8be0079c531659141344cd1fd0a4f28419497f9722a3daafe3b4186f6b6457e060405160405180910390a3806000806101000a81548173ffffffffffffffffffffffffffffffffffffffff021916908373ffffffffffffffffffffffffffffffffffffffff160217905550505600a165627a7a723058207b43afbe01a83761a5c5d952e2874fc7e5140f3d16051a73be2bf786a0b6a17d0029",
  "source": "pragma solidity ^0.4.24;\r\n\r\n// Thank you to BokkyPooBah / Bok Consulting Pty Ltd 2018, Moritz Neto \r\n// Originally based on code by FirstBlood: https://github.com/Firstbloodio/token/blob/master/smart_contract/FirstBloodToken.sol\r\n// MIT Licence.\r\n\r\n\r\n\r\n// Using OpenZeppelin Forked from OpenZeppelin/openzeppelin-solidity\r\n// Start Zeppelin import IERC20, ERC20, Ownable, SafeMath\r\n\r\n/**\r\n * @title ERC20 interface\r\n * @dev see https://github.com/ethereum/EIPs/issues/20\r\n */\r\ninterface IERC20 {\r\n  function totalSupply() external view returns (uint256);\r\n\r\n  function balanceOf(address who) external view returns (uint256);\r\n\r\n  function allowance(address owner, address spender)\r\n    external view returns (uint256);\r\n\r\n  function transfer(address to, uint256 value) external returns (bool);\r\n\r\n  function approve(address spender, uint256 value)\r\n    external returns (bool);\r\n\r\n  function transferFrom(address from, address to, uint256 value)\r\n    external returns (bool);\r\n\r\n  event Transfer(\r\n    address indexed from,\r\n    address indexed to,\r\n    uint256 value\r\n  );\r\n\r\n  event Approval(\r\n    address indexed owner,\r\n    address indexed spender,\r\n    uint256 value\r\n  );\r\n}\r\n\r\n\r\n// End import \"/E/USAT.IO-Token-Sale/openzeppelin-solidity/contracts/token/ERC20/IERC20.sol\";\r\n\r\n\r\n/**\r\n * @title SafeMath\r\n * @dev Math operations with safety checks that revert on error\r\n */\r\nlibrary SafeMath {\r\n\r\n  /**\r\n  * @dev Multiplies two numbers, reverts on overflow.\r\n  */\r\n  function mul(uint256 a, uint256 b) internal pure returns (uint256) {\r\n    // Gas optimization: this is cheaper than requiring 'a' not being zero, but the\r\n    // benefit is lost if 'b' is also tested.\r\n    // See: https://github.com/OpenZeppelin/openzeppelin-solidity/pull/522\r\n    if (a == 0) {\r\n      return 0;\r\n    }\r\n\r\n    uint256 c = a * b;\r\n    require(c / a == b);\r\n\r\n    return c;\r\n  }\r\n\r\n  /**\r\n  * @dev Integer division of two numbers truncating the quotient, reverts on division by zero.\r\n  */\r\n  function div(uint256 a, uint256 b) internal pure returns (uint256) {\r\n    require(b > 0); // Solidity only automatically asserts when dividing by 0\r\n    uint256 c = a / b;\r\n    // assert(a == b * c + a % b); // There is no case in which this doesn't hold\r\n\r\n    return c;\r\n  }\r\n\r\n  /**\r\n  * @dev Subtracts two numbers, reverts on overflow (i.e. if subtrahend is greater than minuend).\r\n  */\r\n  function sub(uint256 a, uint256 b) internal pure returns (uint256) {\r\n    require(b <= a);\r\n    uint256 c = a - b;\r\n\r\n    return c;\r\n  }\r\n\r\n  /**\r\n  * @dev Adds two numbers, reverts on overflow.\r\n  */\r\n  function add(uint256 a, uint256 b) internal pure returns (uint256) {\r\n    uint256 c = a + b;\r\n    require(c >= a);\r\n\r\n    return c;\r\n  }\r\n\r\n  /**\r\n  * @dev Divides two numbers and returns the remainder (unsigned integer modulo),\r\n  * reverts when dividing by zero.\r\n  */\r\n  function mod(uint256 a, uint256 b) internal pure returns (uint256) {\r\n    require(b != 0);\r\n    return a % b;\r\n  }\r\n}\r\n// End import \"/E/USAT.IO-Token-Sale/openzeppelin-solidity/contracts/math/SafeMath.sol\";\r\n\r\ncontract ERC20 is IERC20 {\r\n  using SafeMath for uint256;\r\n\r\n  mapping (address => uint256) private _balances;\r\n\r\n  mapping (address => mapping (address => uint256)) private _allowed;\r\n\r\n  uint256 private _totalSupply;\r\n\r\n  /**\r\n  * @dev Total number of tokens in existence\r\n  */\r\n  function totalSupply() public view returns (uint256) {\r\n    return _totalSupply;\r\n  }\r\n\r\n  /**\r\n  * @dev Gets the balance of the specified address.\r\n  * @param owner The address to query the balance of.\r\n  * @return An uint256 representing the amount owned by the passed address.\r\n  */\r\n  function balanceOf(address owner) public view returns (uint256) {\r\n    return _balances[owner];\r\n  }\r\n\r\n  /**\r\n   * @dev Function to check the amount of tokens that an owner allowed to a spender.\r\n   * @param owner address The address which owns the funds.\r\n   * @param spender address The address which will spend the funds.\r\n   * @return A uint256 specifying the amount of tokens still available for the spender.\r\n   */\r\n  function allowance(\r\n    address owner,\r\n    address spender\r\n   )\r\n    public\r\n    view\r\n    returns (uint256)\r\n  {\r\n    return _allowed[owner][spender];\r\n  }\r\n\r\n  /**\r\n  * @dev Transfer token for a specified address\r\n  * @param to The address to transfer to.\r\n  * @param value The amount to be transferred.\r\n  */\r\n  function transfer(address to, uint256 value) public returns (bool) {\r\n    require(value <= _balances[msg.sender]);\r\n    require(to != address(0));\r\n\r\n    _balances[msg.sender] = _balances[msg.sender].sub(value);\r\n    _balances[to] = _balances[to].add(value);\r\n    emit Transfer(msg.sender, to, value);\r\n    return true;\r\n  }\r\n\r\n  /**\r\n   * @dev Approve the passed address to spend the specified amount of tokens on behalf of msg.sender.\r\n   * Beware that changing an allowance with this method brings the risk that someone may use both the old\r\n   * and the new allowance by unfortunate transaction ordering. One possible solution to mitigate this\r\n   * race condition is to first reduce the spender's allowance to 0 and set the desired value afterwards:\r\n   * https://github.com/ethereum/EIPs/issues/20#issuecomment-263524729\r\n   * @param spender The address which will spend the funds.\r\n   * @param value The amount of tokens to be spent.\r\n   */\r\n  function approve(address spender, uint256 value) public returns (bool) {\r\n    require(spender != address(0));\r\n\r\n    _allowed[msg.sender][spender] = value;\r\n    emit Approval(msg.sender, spender, value);\r\n    return true;\r\n  }\r\n\r\n  /**\r\n   * @dev Transfer tokens from one address to another\r\n   * @param from address The address which you want to send tokens from\r\n   * @param to address The address which you want to transfer to\r\n   * @param value uint256 the amount of tokens to be transferred\r\n   */\r\n  function transferFrom(\r\n    address from,\r\n    address to,\r\n    uint256 value\r\n  )\r\n    public\r\n    returns (bool)\r\n  {\r\n    require(value <= _balances[from]);\r\n    require(value <= _allowed[from][msg.sender]);\r\n    require(to != address(0));\r\n\r\n    _balances[from] = _balances[from].sub(value);\r\n    _balances[to] = _balances[to].add(value);\r\n    _allowed[from][msg.sender] = _allowed[from][msg.sender].sub(value);\r\n    emit Transfer(from, to, value);\r\n    return true;\r\n  }\r\n\r\n  /**\r\n   * @dev Increase the amount of tokens that an owner allowed to a spender.\r\n   * approve should be called when allowed_[_spender] == 0. To increment\r\n   * allowed value is better to use this function to avoid 2 calls (and wait until\r\n   * the first transaction is mined)\r\n   * From MonolithDAO Token.sol\r\n   * @param spender The address which will spend the funds.\r\n   * @param addedValue The amount of tokens to increase the allowance by.\r\n   */\r\n  function increaseAllowance(\r\n    address spender,\r\n    uint256 addedValue\r\n  )\r\n    public\r\n    returns (bool)\r\n  {\r\n    require(spender != address(0));\r\n\r\n    _allowed[msg.sender][spender] = (\r\n      _allowed[msg.sender][spender].add(addedValue));\r\n    emit Approval(msg.sender, spender, _allowed[msg.sender][spender]);\r\n    return true;\r\n  }\r\n\r\n  /**\r\n   * @dev Decrease the amount of tokens that an owner allowed to a spender.\r\n   * approve should be called when allowed_[_spender] == 0. To decrement\r\n   * allowed value is better to use this function to avoid 2 calls (and wait until\r\n   * the first transaction is mined)\r\n   * From MonolithDAO Token.sol\r\n   * @param spender The address which will spend the funds.\r\n   * @param subtractedValue The amount of tokens to decrease the allowance by.\r\n   */\r\n  function decreaseAllowance(\r\n    address spender,\r\n    uint256 subtractedValue\r\n  )\r\n    public\r\n    returns (bool)\r\n  {\r\n    require(spender != address(0));\r\n\r\n    _allowed[msg.sender][spender] = (\r\n      _allowed[msg.sender][spender].sub(subtractedValue));\r\n    emit Approval(msg.sender, spender, _allowed[msg.sender][spender]);\r\n    return true;\r\n  }\r\n\r\n  /**\r\n   * @dev Internal function that mints an amount of the token and assigns it to\r\n   * an account. This encapsulates the modification of balances such that the\r\n   * proper events are emitted.\r\n   * @param account The account that will receive the created tokens.\r\n   * @param amount The amount that will be created.\r\n   */\r\n  function _mint(address account, uint256 amount) internal {\r\n    require(account != 0);\r\n    _totalSupply = _totalSupply.add(amount);\r\n    _balances[account] = _balances[account].add(amount);\r\n    emit Transfer(address(0), account, amount);\r\n  }\r\n\r\n  /**\r\n   * @dev Internal function that burns an amount of the token of a given\r\n   * account.\r\n   * @param account The account whose tokens will be burnt.\r\n   * @param amount The amount that will be burnt.\r\n   */\r\n  function _burn(address account, uint256 amount) internal {\r\n    require(account != 0);\r\n    require(amount <= _balances[account]);\r\n\r\n    _totalSupply = _totalSupply.sub(amount);\r\n    _balances[account] = _balances[account].sub(amount);\r\n    emit Transfer(account, address(0), amount);\r\n  }\r\n\r\n  /**\r\n   * @dev Internal function that burns an amount of the token of a given\r\n   * account, deducting from the sender's allowance for said account. Uses the\r\n   * internal burn function.\r\n   * @param account The account whose tokens will be burnt.\r\n   * @param amount The amount that will be burnt.\r\n   */\r\n  function _burnFrom(address account, uint256 amount) internal {\r\n    require(amount <= _allowed[account][msg.sender]);\r\n\r\n    // Should https://github.com/OpenZeppelin/zeppelin-solidity/issues/707 be accepted,\r\n    // this function needs to emit an event with the updated approval.\r\n    _allowed[account][msg.sender] = _allowed[account][msg.sender].sub(\r\n      amount);\r\n    _burn(account, amount);\r\n  }\r\n}\r\n// End import \"/E/USAT.IO-Token-Sale/openzeppelin-solidity/contracts/token/ERC20/ERC20.sol\";\r\n\r\n/**\r\n * @title Ownable\r\n * @dev The Ownable contract has an owner address, and provides basic authorization control\r\n * functions, this simplifies the implementation of \"user permissions\".\r\n */\r\ncontract Ownable {\r\n  address private _owner;\r\n\r\n  event OwnershipRenounced(address indexed previousOwner);\r\n  event OwnershipTransferred(\r\n    address indexed previousOwner,\r\n    address indexed newOwner\r\n  );\r\n\r\n  /**\r\n   * @dev The Ownable constructor sets the original `owner` of the contract to the sender\r\n   * account.\r\n   */\r\n  constructor() public {\r\n    _owner = msg.sender;\r\n  }\r\n\r\n  /**\r\n   * @return the address of the owner.\r\n   */\r\n  function owner() public view returns(address) {\r\n    return _owner;\r\n  }\r\n\r\n  /**\r\n   * @dev Throws if called by any account other than the owner.\r\n   */\r\n  modifier onlyOwner() {\r\n    require(isOwner());\r\n    _;\r\n  }\r\n\r\n  /**\r\n   * @return true if `msg.sender` is the owner of the contract.\r\n   */\r\n  function isOwner() public view returns(bool) {\r\n    return msg.sender == _owner;\r\n  }\r\n\r\n  /**\r\n   * @dev Allows the current owner to relinquish control of the contract.\r\n   * @notice Renouncing to ownership will leave the contract without an owner.\r\n   * It will not be possible to call the functions with the `onlyOwner`\r\n   * modifier anymore.\r\n   */\r\n  function renounceOwnership() public onlyOwner {\r\n    emit OwnershipRenounced(_owner);\r\n    _owner = address(0);\r\n  }\r\n\r\n  /**\r\n   * @dev Allows the current owner to transfer control of the contract to a newOwner.\r\n   * @param newOwner The address to transfer ownership to.\r\n   */\r\n  function transferOwnership(address newOwner) public onlyOwner {\r\n    _transferOwnership(newOwner);\r\n  }\r\n\r\n  /**\r\n   * @dev Transfers control of the contract to a newOwner.\r\n   * @param newOwner The address to transfer ownership to.\r\n   */\r\n  function _transferOwnership(address newOwner) internal {\r\n    require(newOwner != address(0));\r\n    emit OwnershipTransferred(_owner, newOwner);\r\n    _owner = newOwner;\r\n  }\r\n}\r\n\r\n// End import \"/E/USAT.IO-Token-Sale/openzeppelin-solidity/contracts/ownership/Ownable.sol\";\r\n\r\n\r\n\r\ncontract USATToken is ERC20, Ownable {\r\n    string public constant name = \"USAT.IO Token\";\r\n    string public constant symbol = \"USAT\";\r\n    uint8 public constant decimals = 18;\r\n\r\n    //event USATSenderCheck(address owner, address sender, address spender);\r\n    //event USATAllowed(address owner, address from, address sender, address to, uint token, uint org, uint diff);\r\n    constructor() public {\r\n             _mint(owner(), 1525000000000000000000000000);\r\n    }\r\n}",
  "sourcePath": "E:\\USAT.IO-Token-Sale\\contracts\\USAT.sol",
  "compiler": {
    "name": "solc",
    "version": "0.4.24+commit.e67f0147.Emscripten.clang"
  },
  "schemaVersion": "2.0.1",
  "updatedAt": "2018-10-02T23:08:20.050Z"
}